:020000040000FA
:020000000528D1
:080008002E28E730A0000B30A8
:10001000A1000930A2000730A3000E30A400003078
:10002000A5002030A800831680308700FF308500AF
:1000300019309900181598168C1681128115011423
:10004000811001118312981718168B170B178B1636
:100050000430810027108701B0012D288C1A332825
:100060000B194A2809001A08573C031963281A0873
:10007000413C031966281A08533C031969281A08D9
:10008000443C03196C281A08503C031960281A08CC
:10009000A60009000B11271853282608A900A90B50
:1000A0005A28271409002808263CA900A90B5D2816
:1000B00027100900300887000900B00187010900F6
:1000C000B001870109002108B00009002208B00032
:0E00D00009002308B00009002408B000090050
:02400E00793FF8
:00000001FF
