:020000040000FA
:020000000528D1
:080008002728E730A0000608DC
:10001000A1008316FF30860085009F131F109F10DC
:100020001F119F111930990018159816811281110E
:1000300001148114011583121F1498178B178B1547
:100040008B160B173D3081000530A60026280B18B3
:100050002C280B193B28090006082106A2000608D7
:10006000A1000B10A21B5328221B5B28A21A632895
:10007000221A6B2809003D308100A60B09000530CB
:1000800081000B119F121F169F111F151F19462863
:100090001E08A5000310A50C0310A50C0310A50C49
:1000A000031076200900861F732844309900000051
:1000B000000076200900061F7328573099000000C1
:1000C000000076200900861E732841309900000048
:1000D000000076200900061E7328533099000000A6
:1000E0000000762009005030990009002508990089
:0800F000090020089900080036
:02400E00793FF8
:00000001FF
