:020000040000FA
:020000000528D1
:080008003028831685011F104A
:100010009F141F159F15E1308600870181168111FD
:10002000011581140114011783120730A800280854
:10003000A00185003D3081000430A1000C30B400E7
:100040008700A1030630B3000330B2000930B100CD
:100050000608A300A7018B178B160B168B152F28EC
:100060000B1968288B1891289E2006082306A400E7
:100070000608A3000B10A41B5728241B4B28861A24
:100080000900280885000130280603190900A80383
:10009000280885000900061B0900280885000F3084
:1000A000280603190900A80A280885000900861FE8
:1000B0000900271C5C2862288316811283120130F4
:1000C000A70009008316811683160030A7000900D7
:1000D0000B113D3081008A28A00B0900061C7B28EB
:1000E000303084002108840700088700A10B090034
:1000F0000430A10009003030840021088407000882
:100100008700A10A05302106031D09008728013058
:10011000A100090000302006031D6C282808A0005B
:1001200009008B10061899280610831601178312F0
:100130000900061483160113831209006330A50019
:0E0140006430A600A60BA228A50BA02808007C
:02400E00793FF8
:00000001FF
