:020000040000FA
:020000000528D1
:080008003A284C30A800B700B3
:10001000C5004130A700B600C4004230A600B500BC
:10002000C3003530A500B400C2005F30A400B300A7
:10003000C1003130A3003230B2006530C0007230F0
:10004000BF000A30A200B100BE000D30A100B00018
:10005000BD0083168601803087000C30990018158A
:1000600098168C168312981718168B170B17860183
:10007000A00139288C1A3D285028201C59281A081C
:10008000D2005108413C031D5D285208313C031940
:1000900063285208323C031969285D2820100900A2
:1000A000840300089900D00B090083160C128312F8
:1000B00009001A08D100201409000930D000463088
:1000C00084006F2009000830D000293084006F20A0
:1000D00009000830D000383084006F2009008316F2
:0800E0000C1683122010080029
:02400E00793FF8
:00000001FF
